{
  "_format": "hh-sol-artifact-1",
  "contractName": "WaterBill",
  "sourceName": "contracts/WaterBill.sol",
  "abi": [
    {
      "inputs": [
        {
          "internalType": "address",
          "name": "",
          "type": "address"
        }
      ],
      "name": "bills",
      "outputs": [
        {
          "internalType": "uint256",
          "name": "amount",
          "type": "uint256"
        },
        {
          "internalType": "bool",
          "name": "paid",
          "type": "bool"
        }
      ],
      "stateMutability": "view",
      "type": "function"
    },
    {
      "inputs": [
        {
          "internalType": "uint256",
          "name": "_amount",
          "type": "uint256"
        }
      ],
      "name": "generateBill",
      "outputs": [],
      "stateMutability": "nonpayable",
      "type": "function"
    },
    {
      "inputs": [],
      "name": "getMyBill",
      "outputs": [
        {
          "internalType": "uint256",
          "name": "amount",
          "type": "uint256"
        },
        {
          "internalType": "bool",
          "name": "paid",
          "type": "bool"
        }
      ],
      "stateMutability": "view",
      "type": "function"
    },
    {
      "inputs": [],
      "name": "payBill",
      "outputs": [],
      "stateMutability": "payable",
      "type": "function"
    }
  ],
  "bytecode": "0x608060405234801561001057600080fd5b50610708806100206000396000f3fe60806040526004361061003f5760003560e01c80630cfba556146100445780637a7816581461008257806399d2223a1461008c578063ea537b25146100b5575b600080fd5b34801561005057600080fd5b5061006b60048036038101906100669190610408565b6100e1565b604051610079929190610469565b60405180910390f35b61008a610112565b005b34801561009857600080fd5b506100b360048036038101906100ae91906104be565b610254565b005b3480156100c157600080fd5b506100ca61031d565b6040516100d8929190610469565b60405180910390f35b60006020528060005260406000206000915090508060000154908060010160009054906101000a900460ff16905082565b60008060003373ffffffffffffffffffffffffffffffffffffffff1673ffffffffffffffffffffffffffffffffffffffff1681526020019081526020016000209050600081600001541161019b576040517f08c379a000000000000000000000000000000000000000000000000000000000815260040161019290610548565b60405180910390fd5b8060010160009054906101000a900460ff16156101ed576040517f08c379a00000000000000000000000000000000000000000000000000000000081526004016101e4906105b4565b60405180910390fd5b8060000154341015610234576040517f08c379a000000000000000000000000000000000000000000000000000000000815260040161022b90610646565b60405180910390fd5b60018160010160006101000a81548160ff02191690831515021790555050565b60008111610297576040517f08c379a000000000000000000000000000000000000000000000000000000000815260040161028e906106b2565b60405180910390fd5b6040518060400160405280828152602001600015158152506000803373ffffffffffffffffffffffffffffffffffffffff1673ffffffffffffffffffffffffffffffffffffffff1681526020019081526020016000206000820151816000015560208201518160010160006101000a81548160ff02191690831515021790555090505050565b60008060008060003373ffffffffffffffffffffffffffffffffffffffff1673ffffffffffffffffffffffffffffffffffffffff168152602001908152602001600020604051806040016040529081600082015481526020016001820160009054906101000a900460ff16151515158152505090508060000151816020015192509250509091565b600080fd5b600073ffffffffffffffffffffffffffffffffffffffff82169050919050565b60006103d5826103aa565b9050919050565b6103e5816103ca565b81146103f057600080fd5b50565b600081359050610402816103dc565b92915050565b60006020828403121561041e5761041d6103a5565b5b600061042c848285016103f3565b91505092915050565b6000819050919050565b61044881610435565b82525050565b60008115159050919050565b6104638161044e565b82525050565b600060408201905061047e600083018561043f565b61048b602083018461045a565b9392505050565b61049b81610435565b81146104a657600080fd5b50565b6000813590506104b881610492565b92915050565b6000602082840312156104d4576104d36103a5565b5b60006104e2848285016104a9565b91505092915050565b600082825260208201905092915050565b7f4e6f2062696c6c20666f756e6400000000000000000000000000000000000000600082015250565b6000610532600d836104eb565b915061053d826104fc565b602082019050919050565b6000602082019050818103600083015261056181610525565b9050919050565b7f42696c6c20616c72656164792070616964000000000000000000000000000000600082015250565b600061059e6011836104eb565b91506105a982610568565b602082019050919050565b600060208201905081810360008301526105cd81610591565b9050919050565b7f496e73756666696369656e7420616d6f756e7420746f2070617920746865206260008201527f696c6c0000000000000000000000000000000000000000000000000000000000602082015250565b60006106306023836104eb565b915061063b826105d4565b604082019050919050565b6000602082019050818103600083015261065f81610623565b9050919050565b7f416d6f756e74206d7573742062652067726561746572207468616e2030000000600082015250565b600061069c601d836104eb565b91506106a782610666565b602082019050919050565b600060208201905081810360008301526106cb8161068f565b905091905056fea2646970667358221220d83f26fa7191933437c17673e86c17d61ccc248db84eec48ad589080d65b2aba64736f6c63430008130033",
  "linkReferences": {},
  "deployedLinkReferences": {}
}